{
  "_format": "hh-sol-artifact-1",
  "contractName": "CrowdMint",
  "sourceName": "contracts/CrowdMint.sol",
  "abi": [
    {
      "anonymous": false,
      "inputs": [
        {
          "indexed": false,
          "internalType": "uint256",
          "name": "projectId",
          "type": "uint256"
        },
        {
          "indexed": false,
          "internalType": "address",
          "name": "donor",
          "type": "address"
        },
        {
          "indexed": false,
          "internalType": "uint256",
          "name": "amount",
          "type": "uint256"
        }
      ],
      "name": "DonationReceived",
      "type": "event"
    },
    {
      "anonymous": false,
      "inputs": [
        {
          "indexed": false,
          "internalType": "uint256",
          "name": "projectId",
          "type": "uint256"
        },
        {
          "indexed": false,
          "internalType": "string",
          "name": "title",
          "type": "string"
        },
        {
          "indexed": false,
          "internalType": "string",
          "name": "description",
          "type": "string"
        },
        {
          "indexed": false,
          "internalType": "uint256",
          "name": "goal",
          "type": "uint256"
        },
        {
          "indexed": false,
          "internalType": "address",
          "name": "creator",
          "type": "address"
        }
      ],
      "name": "ProjectCreated",
      "type": "event"
    },
    {
      "inputs": [
        {
          "internalType": "string",
          "name": "_title",
          "type": "string"
        },
        {
          "internalType": "string",
          "name": "_description",
          "type": "string"
        },
        {
          "internalType": "uint256",
          "name": "_goal",
          "type": "uint256"
        }
      ],
      "name": "createProject",
      "outputs": [],
      "stateMutability": "nonpayable",
      "type": "function"
    },
    {
      "inputs": [
        {
          "internalType": "uint256",
          "name": "_projectId",
          "type": "uint256"
        }
      ],
      "name": "donateToProject",
      "outputs": [],
      "stateMutability": "payable",
      "type": "function"
    },
    {
      "inputs": [],
      "name": "getProjects",
      "outputs": [
        {
          "components": [
            {
              "internalType": "string",
              "name": "title",
              "type": "string"
            },
            {
              "internalType": "string",
              "name": "description",
              "type": "string"
            },
            {
              "internalType": "uint256",
              "name": "goal",
              "type": "uint256"
            },
            {
              "internalType": "uint256",
              "name": "fundsRaised",
              "type": "uint256"
            },
            {
              "internalType": "address payable",
              "name": "creator",
              "type": "address"
            }
          ],
          "internalType": "struct CrowdMint.Project[]",
          "name": "",
          "type": "tuple[]"
        }
      ],
      "stateMutability": "view",
      "type": "function"
    },
    {
      "inputs": [
        {
          "internalType": "uint256",
          "name": "",
          "type": "uint256"
        }
      ],
      "name": "projects",
      "outputs": [
        {
          "internalType": "string",
          "name": "title",
          "type": "string"
        },
        {
          "internalType": "string",
          "name": "description",
          "type": "string"
        },
        {
          "internalType": "uint256",
          "name": "goal",
          "type": "uint256"
        },
        {
          "internalType": "uint256",
          "name": "fundsRaised",
          "type": "uint256"
        },
        {
          "internalType": "address payable",
          "name": "creator",
          "type": "address"
        }
      ],
      "stateMutability": "view",
      "type": "function"
    }
  ],
  "bytecode": "0x608060405234801561001057600080fd5b50611229806100206000396000f3fe60806040526004361061003f5760003560e01c8063107046bd1461004457806323c554481461008557806356adb06f146100ae578063dcc60128146100ca575b600080fd5b34801561005057600080fd5b5061006b60048036038101906100669190610735565b6100f5565b60405161007c959493929190610842565b60405180910390f35b34801561009157600080fd5b506100ac60048036038101906100a791906109d8565b61026b565b005b6100c860048036038101906100c39190610735565b6103f5565b005b3480156100d657600080fd5b506100df6104fe565b6040516100ec9190610c0a565b60405180910390f35b6000818154811061010557600080fd5b906000526020600020906005020160009150905080600001805461012890610c5b565b80601f016020809104026020016040519081016040528092919081815260200182805461015490610c5b565b80156101a15780601f10610176576101008083540402835291602001916101a1565b820191906000526020600020905b81548152906001019060200180831161018457829003601f168201915b5050505050908060010180546101b690610c5b565b80601f01602080910402602001604051908101604052809291908181526020018280546101e290610c5b565b801561022f5780601f106102045761010080835404028352916020019161022f565b820191906000526020600020905b81548152906001019060200180831161021257829003601f168201915b5050505050908060020154908060030154908060040160009054906101000a900473ffffffffffffffffffffffffffffffffffffffff16905085565b600081116102ae576040517f08c379a00000000000000000000000000000000000000000000000000000000081526004016102a590610cd8565b60405180910390fd5b60006040518060a00160405280858152602001848152602001838152602001600081526020013373ffffffffffffffffffffffffffffffffffffffff168152509080600181540180825580915050600190039060005260206000209060050201600090919091909150600082015181600001908161032c9190610ea4565b5060208201518160010190816103429190610ea4565b50604082015181600201556060820151816003015560808201518160040160006101000a81548173ffffffffffffffffffffffffffffffffffffffff021916908373ffffffffffffffffffffffffffffffffffffffff16021790555050507fe6750b954816279a5e8d90412eecd1c9e7af46d960123b95bf7da9e8fbf6989360016000805490506103d39190610fa5565b848484336040516103e8959493929190610ffa565b60405180910390a1505050565b600080549050811061043c576040517f08c379a0000000000000000000000000000000000000000000000000000000008152600401610433906110a7565b60405180910390fd5b6000341161047f576040517f08c379a000000000000000000000000000000000000000000000000000000000815260040161047690611139565b60405180910390fd5b600080828154811061049457610493611159565b5b90600052602060002090600502019050348160030160008282546104b89190611188565b925050819055507f0b5b4c52969ff7329ecf7ee536409fda87812b15a8622bc6e8cdeab3aee14a268233346040516104f2939291906111bc565b60405180910390a15050565b60606000805480602002602001604051908101604052809291908181526020016000905b828210156106e257838290600052602060002090600502016040518060a001604052908160008201805461055590610c5b565b80601f016020809104026020016040519081016040528092919081815260200182805461058190610c5b565b80156105ce5780601f106105a3576101008083540402835291602001916105ce565b820191906000526020600020905b8154815290600101906020018083116105b157829003601f168201915b505050505081526020016001820180546105e790610c5b565b80601f016020809104026020016040519081016040528092919081815260200182805461061390610c5b565b80156106605780601f1061063557610100808354040283529160200191610660565b820191906000526020600020905b81548152906001019060200180831161064357829003601f168201915b5050505050815260200160028201548152602001600382015481526020016004820160009054906101000a900473ffffffffffffffffffffffffffffffffffffffff1673ffffffffffffffffffffffffffffffffffffffff1673ffffffffffffffffffffffffffffffffffffffff168152505081526020019060010190610522565b50505050905090565b6000604051905090565b600080fd5b600080fd5b6000819050919050565b610712816106ff565b811461071d57600080fd5b50565b60008135905061072f81610709565b92915050565b60006020828403121561074b5761074a6106f5565b5b600061075984828501610720565b91505092915050565b600081519050919050565b600082825260208201905092915050565b60005b8381101561079c578082015181840152602081019050610781565b60008484015250505050565b6000601f19601f8301169050919050565b60006107c482610762565b6107ce818561076d565b93506107de81856020860161077e565b6107e7816107a8565b840191505092915050565b6107fb816106ff565b82525050565b600073ffffffffffffffffffffffffffffffffffffffff82169050919050565b600061082c82610801565b9050919050565b61083c81610821565b82525050565b600060a082019050818103600083015261085c81886107b9565b9050818103602083015261087081876107b9565b905061087f60408301866107f2565b61088c60608301856107f2565b6108996080830184610833565b9695505050505050565b600080fd5b600080fd5b7f4e487b7100000000000000000000000000000000000000000000000000000000600052604160045260246000fd5b6108e5826107a8565b810181811067ffffffffffffffff82111715610904576109036108ad565b5b80604052505050565b60006109176106eb565b905061092382826108dc565b919050565b600067ffffffffffffffff821115610943576109426108ad565b5b61094c826107a8565b9050602081019050919050565b82818337600083830152505050565b600061097b61097684610928565b61090d565b905082815260208101848484011115610997576109966108a8565b5b6109a2848285610959565b509392505050565b600082601f8301126109bf576109be6108a3565b5b81356109cf848260208601610968565b91505092915050565b6000806000606084860312156109f1576109f06106f5565b5b600084013567ffffffffffffffff811115610a0f57610a0e6106fa565b5b610a1b868287016109aa565b935050602084013567ffffffffffffffff811115610a3c57610a3b6106fa565b5b610a48868287016109aa565b9250506040610a5986828701610720565b9150509250925092565b600081519050919050565b600082825260208201905092915050565b6000819050602082019050919050565b600082825260208201905092915050565b6000610aab82610762565b610ab58185610a8f565b9350610ac581856020860161077e565b610ace816107a8565b840191505092915050565b610ae2816106ff565b82525050565b610af181610821565b82525050565b600060a0830160008301518482036000860152610b148282610aa0565b91505060208301518482036020860152610b2e8282610aa0565b9150506040830151610b436040860182610ad9565b506060830151610b566060860182610ad9565b506080830151610b696080860182610ae8565b508091505092915050565b6000610b808383610af7565b905092915050565b6000602082019050919050565b6000610ba082610a63565b610baa8185610a6e565b935083602082028501610bbc85610a7f565b8060005b85811015610bf85784840389528151610bd98582610b74565b9450610be483610b88565b925060208a01995050600181019050610bc0565b50829750879550505050505092915050565b60006020820190508181036000830152610c248184610b95565b905092915050565b7f4e487b7100000000000000000000000000000000000000000000000000000000600052602260045260246000fd5b60006002820490506001821680610c7357607f821691505b602082108103610c8657610c85610c2c565b5b50919050565b7f476f616c206d7573742062652067726561746572207468616e207a65726f0000600082015250565b6000610cc2601e8361076d565b9150610ccd82610c8c565b602082019050919050565b60006020820190508181036000830152610cf181610cb5565b9050919050565b60008190508160005260206000209050919050565b60006020601f8301049050919050565b600082821b905092915050565b600060088302610d5a7fffffffffffffffffffffffffffffffffffffffffffffffffffffffffffffffff82610d1d565b610d648683610d1d565b95508019841693508086168417925050509392505050565b6000819050919050565b6000610da1610d9c610d97846106ff565b610d7c565b6106ff565b9050919050565b6000819050919050565b610dbb83610d86565b610dcf610dc782610da8565b848454610d2a565b825550505050565b600090565b610de4610dd7565b610def818484610db2565b505050565b5b81811015610e1357610e08600082610ddc565b600181019050610df5565b5050565b601f821115610e5857610e2981610cf8565b610e3284610d0d565b81016020851015610e41578190505b610e55610e4d85610d0d565b830182610df4565b50505b505050565b600082821c905092915050565b6000610e7b60001984600802610e5d565b1980831691505092915050565b6000610e948383610e6a565b9150826002028217905092915050565b610ead82610762565b67ffffffffffffffff811115610ec657610ec56108ad565b5b610ed08254610c5b565b610edb828285610e17565b600060209050601f831160018114610f0e5760008415610efc578287015190505b610f068582610e88565b865550610f6e565b601f198416610f1c86610cf8565b60005b82811015610f4457848901518255600182019150602085019450602081019050610f1f565b86831015610f615784890151610f5d601f891682610e6a565b8355505b6001600288020188555050505b505050505050565b7f4e487b7100000000000000000000000000000000000000000000000000000000600052601160045260246000fd5b6000610fb0826106ff565b9150610fbb836106ff565b9250828203905081811115610fd357610fd2610f76565b5b92915050565b6000610fe482610801565b9050919050565b610ff481610fd9565b82525050565b600060a08201905061100f60008301886107f2565b818103602083015261102181876107b9565b9050818103604083015261103581866107b9565b905061104460608301856107f2565b6110516080830184610feb565b9695505050505050565b7f50726f6a65637420646f6573206e6f7420657869737400000000000000000000600082015250565b600061109160168361076d565b915061109c8261105b565b602082019050919050565b600060208201905081810360008301526110c081611084565b9050919050565b7f446f6e6174696f6e206d7573742062652067726561746572207468616e207a6560008201527f726f000000000000000000000000000000000000000000000000000000000000602082015250565b600061112360228361076d565b915061112e826110c7565b604082019050919050565b6000602082019050818103600083015261115281611116565b9050919050565b7f4e487b7100000000000000000000000000000000000000000000000000000000600052603260045260246000fd5b6000611193826106ff565b915061119e836106ff565b92508282019050808211156111b6576111b5610f76565b5b92915050565b60006060820190506111d160008301866107f2565b6111de6020830185610feb565b6111eb60408301846107f2565b94935050505056fea264697066735822122058f291a28b86f0d9f07834b860811b3a93148c99400f9cddd0652127dde0897d64736f6c63430008140033",
  "linkReferences": {},
  "deployedLinkReferences": {}
}