{
  "_format": "hh-sol-artifact-1",
  "contractName": "CrowdMint",
  "sourceName": "contracts/CrowdMint.sol",
  "abi": [
    {
      "inputs": [],
      "stateMutability": "nonpayable",
      "type": "constructor"
    },
    {
      "anonymous": false,
      "inputs": [
        {
          "indexed": false,
          "internalType": "uint256",
          "name": "projectId",
          "type": "uint256"
        },
        {
          "indexed": false,
          "internalType": "address",
          "name": "donor",
          "type": "address"
        },
        {
          "indexed": false,
          "internalType": "uint256",
          "name": "amount",
          "type": "uint256"
        }
      ],
      "name": "DonationReceived",
      "type": "event"
    },
    {
      "anonymous": false,
      "inputs": [
        {
          "indexed": false,
          "internalType": "uint256",
          "name": "projectId",
          "type": "uint256"
        },
        {
          "indexed": false,
          "internalType": "address",
          "name": "creator",
          "type": "address"
        },
        {
          "indexed": false,
          "internalType": "uint256",
          "name": "amount",
          "type": "uint256"
        }
      ],
      "name": "FundsWithdrawn",
      "type": "event"
    },
    {
      "anonymous": false,
      "inputs": [
        {
          "indexed": false,
          "internalType": "uint256",
          "name": "projectId",
          "type": "uint256"
        },
        {
          "indexed": false,
          "internalType": "string",
          "name": "title",
          "type": "string"
        },
        {
          "indexed": false,
          "internalType": "string",
          "name": "description",
          "type": "string"
        },
        {
          "indexed": false,
          "internalType": "uint256",
          "name": "goal",
          "type": "uint256"
        },
        {
          "indexed": false,
          "internalType": "address",
          "name": "creator",
          "type": "address"
        }
      ],
      "name": "ProjectCreated",
      "type": "event"
    },
    {
      "inputs": [],
      "name": "admin",
      "outputs": [
        {
          "internalType": "address",
          "name": "",
          "type": "address"
        }
      ],
      "stateMutability": "view",
      "type": "function"
    },
    {
      "inputs": [
        {
          "internalType": "string",
          "name": "_title",
          "type": "string"
        },
        {
          "internalType": "string",
          "name": "_description",
          "type": "string"
        },
        {
          "internalType": "uint256",
          "name": "_goal",
          "type": "uint256"
        }
      ],
      "name": "createProject",
      "outputs": [],
      "stateMutability": "nonpayable",
      "type": "function"
    },
    {
      "inputs": [
        {
          "internalType": "uint256",
          "name": "_projectId",
          "type": "uint256"
        }
      ],
      "name": "donateToProject",
      "outputs": [],
      "stateMutability": "payable",
      "type": "function"
    },
    {
      "inputs": [],
      "name": "getProjects",
      "outputs": [
        {
          "components": [
            {
              "internalType": "string",
              "name": "title",
              "type": "string"
            },
            {
              "internalType": "string",
              "name": "description",
              "type": "string"
            },
            {
              "internalType": "uint256",
              "name": "goal",
              "type": "uint256"
            },
            {
              "internalType": "uint256",
              "name": "fundsRaised",
              "type": "uint256"
            },
            {
              "internalType": "address payable",
              "name": "creator",
              "type": "address"
            },
            {
              "internalType": "bool",
              "name": "isCompleted",
              "type": "bool"
            }
          ],
          "internalType": "struct CrowdMint.Project[]",
          "name": "",
          "type": "tuple[]"
        }
      ],
      "stateMutability": "view",
      "type": "function"
    },
    {
      "inputs": [
        {
          "internalType": "uint256",
          "name": "",
          "type": "uint256"
        }
      ],
      "name": "projects",
      "outputs": [
        {
          "internalType": "string",
          "name": "title",
          "type": "string"
        },
        {
          "internalType": "string",
          "name": "description",
          "type": "string"
        },
        {
          "internalType": "uint256",
          "name": "goal",
          "type": "uint256"
        },
        {
          "internalType": "uint256",
          "name": "fundsRaised",
          "type": "uint256"
        },
        {
          "internalType": "address payable",
          "name": "creator",
          "type": "address"
        },
        {
          "internalType": "bool",
          "name": "isCompleted",
          "type": "bool"
        }
      ],
      "stateMutability": "view",
      "type": "function"
    },
    {
      "inputs": [
        {
          "internalType": "uint256",
          "name": "_projectId",
          "type": "uint256"
        }
      ],
      "name": "withdrawFunds",
      "outputs": [],
      "stateMutability": "nonpayable",
      "type": "function"
    }
  ],
  "bytecode": "0x608060405234801561001057600080fd5b50336000806101000a81548173ffffffffffffffffffffffffffffffffffffffff021916908373ffffffffffffffffffffffffffffffffffffffff16021790555061198c806100606000396000f3fe6080604052600436106100555760003560e01c8063107046bd1461005a578063155dd5ee1461009c57806323c55448146100c557806356adb06f146100ee578063dcc601281461010a578063f851a44014610135575b600080fd5b34801561006657600080fd5b50610081600480360381019061007c9190610b5e565b610160565b60405161009396959493929190610c86565b60405180910390f35b3480156100a857600080fd5b506100c360048036038101906100be9190610b5e565b6102e9565b005b3480156100d157600080fd5b506100ec60048036038101906100e79190610e2a565b61051b565b005b61010860048036038101906101039190610b5e565b6106cd565b005b34801561011657600080fd5b5061011f6108e8565b60405161012c919061107e565b60405180910390f35b34801561014157600080fd5b5061014a610af0565b60405161015791906110c1565b60405180910390f35b6001818154811061017057600080fd5b90600052602060002090600502016000915090508060000180546101939061110b565b80601f01602080910402602001604051908101604052809291908181526020018280546101bf9061110b565b801561020c5780601f106101e15761010080835404028352916020019161020c565b820191906000526020600020905b8154815290600101906020018083116101ef57829003601f168201915b5050505050908060010180546102219061110b565b80601f016020809104026020016040519081016040528092919081815260200182805461024d9061110b565b801561029a5780601f1061026f5761010080835404028352916020019161029a565b820191906000526020600020905b81548152906001019060200180831161027d57829003601f168201915b5050505050908060020154908060030154908060040160009054906101000a900473ffffffffffffffffffffffffffffffffffffffff16908060040160149054906101000a900460ff16905086565b6001805490508110610330576040517f08c379a000000000000000000000000000000000000000000000000000000000815260040161032790611188565b60405180910390fd5b600060018281548110610346576103456111a8565b5b906000526020600020906005020190508060040160009054906101000a900473ffffffffffffffffffffffffffffffffffffffff1673ffffffffffffffffffffffffffffffffffffffff163373ffffffffffffffffffffffffffffffffffffffff16146103e8576040517f08c379a00000000000000000000000000000000000000000000000000000000081526004016103df90611249565b60405180910390fd5b8060040160149054906101000a900460ff16610439576040517f08c379a0000000000000000000000000000000000000000000000000000000008152600401610430906112db565b60405180910390fd5b600081600301549050600082600301819055508160040160009054906101000a900473ffffffffffffffffffffffffffffffffffffffff1673ffffffffffffffffffffffffffffffffffffffff166108fc829081150290604051600060405180830381858888f193505050501580156104b6573d6000803e3d6000fd5b507ff440aec6b52895984d061d622e6edeba6210f7c3e059be920663140c084560d7838360040160009054906101000a900473ffffffffffffffffffffffffffffffffffffffff168360405161050e9392919061135a565b60405180910390a1505050565b6000811161055e576040517f08c379a0000000000000000000000000000000000000000000000000000000008152600401610555906113dd565b60405180910390fd5b60016040518060c00160405280858152602001848152602001838152602001600081526020013373ffffffffffffffffffffffffffffffffffffffff16815260200160001515815250908060018154018082558091505060019003906000526020600020906005020160009091909190915060008201518160000190816105e5919061159f565b5060208201518160010190816105fb919061159f565b50604082015181600201556060820151816003015560808201518160040160006101000a81548173ffffffffffffffffffffffffffffffffffffffff021916908373ffffffffffffffffffffffffffffffffffffffff16021790555060a08201518160040160146101000a81548160ff02191690831515021790555050507fe6750b954816279a5e8d90412eecd1c9e7af46d960123b95bf7da9e8fbf69893600180805490506106ab91906116a0565b848484336040516106c09594939291906116d4565b60405180910390a1505050565b6001805490508110610714576040517f08c379a000000000000000000000000000000000000000000000000000000000815260040161070b90611188565b60405180910390fd5b60003411610757576040517f08c379a000000000000000000000000000000000000000000000000000000000815260040161074e906117a7565b60405180910390fd5b60006001828154811061076d5761076c6111a8565b5b906000526020600020906005020190508060040160009054906101000a900473ffffffffffffffffffffffffffffffffffffffff1673ffffffffffffffffffffffffffffffffffffffff163373ffffffffffffffffffffffffffffffffffffffff160361080f576040517f08c379a000000000000000000000000000000000000000000000000000000000815260040161080690611839565b60405180910390fd5b8060040160149054906101000a900460ff1615610861576040517f08c379a0000000000000000000000000000000000000000000000000000000008152600401610858906118cb565b60405180910390fd5b3481600301600082825461087591906118eb565b9250508190555080600201548160030154106108a95760018160040160146101000a81548160ff0219169083151502179055505b7f0b5b4c52969ff7329ecf7ee536409fda87812b15a8622bc6e8cdeab3aee14a268233346040516108dc9392919061191f565b60405180910390a15050565b60606001805480602002602001604051908101604052809291908181526020016000905b82821015610ae757838290600052602060002090600502016040518060c001604052908160008201805461093f9061110b565b80601f016020809104026020016040519081016040528092919081815260200182805461096b9061110b565b80156109b85780601f1061098d576101008083540402835291602001916109b8565b820191906000526020600020905b81548152906001019060200180831161099b57829003601f168201915b505050505081526020016001820180546109d19061110b565b80601f01602080910402602001604051908101604052809291908181526020018280546109fd9061110b565b8015610a4a5780601f10610a1f57610100808354040283529160200191610a4a565b820191906000526020600020905b815481529060010190602001808311610a2d57829003601f168201915b5050505050815260200160028201548152602001600382015481526020016004820160009054906101000a900473ffffffffffffffffffffffffffffffffffffffff1673ffffffffffffffffffffffffffffffffffffffff1673ffffffffffffffffffffffffffffffffffffffff1681526020016004820160149054906101000a900460ff1615151515815250508152602001906001019061090c565b50505050905090565b60008054906101000a900473ffffffffffffffffffffffffffffffffffffffff1681565b6000604051905090565b600080fd5b600080fd5b6000819050919050565b610b3b81610b28565b8114610b4657600080fd5b50565b600081359050610b5881610b32565b92915050565b600060208284031215610b7457610b73610b1e565b5b6000610b8284828501610b49565b91505092915050565b600081519050919050565b600082825260208201905092915050565b60005b83811015610bc5578082015181840152602081019050610baa565b60008484015250505050565b6000601f19601f8301169050919050565b6000610bed82610b8b565b610bf78185610b96565b9350610c07818560208601610ba7565b610c1081610bd1565b840191505092915050565b610c2481610b28565b82525050565b600073ffffffffffffffffffffffffffffffffffffffff82169050919050565b6000610c5582610c2a565b9050919050565b610c6581610c4a565b82525050565b60008115159050919050565b610c8081610c6b565b82525050565b600060c0820190508181036000830152610ca08189610be2565b90508181036020830152610cb48188610be2565b9050610cc36040830187610c1b565b610cd06060830186610c1b565b610cdd6080830185610c5c565b610cea60a0830184610c77565b979650505050505050565b600080fd5b600080fd5b7f4e487b7100000000000000000000000000000000000000000000000000000000600052604160045260246000fd5b610d3782610bd1565b810181811067ffffffffffffffff82111715610d5657610d55610cff565b5b80604052505050565b6000610d69610b14565b9050610d758282610d2e565b919050565b600067ffffffffffffffff821115610d9557610d94610cff565b5b610d9e82610bd1565b9050602081019050919050565b82818337600083830152505050565b6000610dcd610dc884610d7a565b610d5f565b905082815260208101848484011115610de957610de8610cfa565b5b610df4848285610dab565b509392505050565b600082601f830112610e1157610e10610cf5565b5b8135610e21848260208601610dba565b91505092915050565b600080600060608486031215610e4357610e42610b1e565b5b600084013567ffffffffffffffff811115610e6157610e60610b23565b5b610e6d86828701610dfc565b935050602084013567ffffffffffffffff811115610e8e57610e8d610b23565b5b610e9a86828701610dfc565b9250506040610eab86828701610b49565b9150509250925092565b600081519050919050565b600082825260208201905092915050565b6000819050602082019050919050565b600082825260208201905092915050565b6000610efd82610b8b565b610f078185610ee1565b9350610f17818560208601610ba7565b610f2081610bd1565b840191505092915050565b610f3481610b28565b82525050565b610f4381610c4a565b82525050565b610f5281610c6b565b82525050565b600060c0830160008301518482036000860152610f758282610ef2565b91505060208301518482036020860152610f8f8282610ef2565b9150506040830151610fa46040860182610f2b565b506060830151610fb76060860182610f2b565b506080830151610fca6080860182610f3a565b5060a0830151610fdd60a0860182610f49565b508091505092915050565b6000610ff48383610f58565b905092915050565b6000602082019050919050565b600061101482610eb5565b61101e8185610ec0565b93508360208202850161103085610ed1565b8060005b8581101561106c578484038952815161104d8582610fe8565b945061105883610ffc565b925060208a01995050600181019050611034565b50829750879550505050505092915050565b600060208201905081810360008301526110988184611009565b905092915050565b60006110ab82610c2a565b9050919050565b6110bb816110a0565b82525050565b60006020820190506110d660008301846110b2565b92915050565b7f4e487b7100000000000000000000000000000000000000000000000000000000600052602260045260246000fd5b6000600282049050600182168061112357607f821691505b602082108103611136576111356110dc565b5b50919050565b7f50726f6a65637420646f6573206e6f7420657869737400000000000000000000600082015250565b6000611172601683610b96565b915061117d8261113c565b602082019050919050565b600060208201905081810360008301526111a181611165565b9050919050565b7f4e487b7100000000000000000000000000000000000000000000000000000000600052603260045260246000fd5b7f4f6e6c79207468652070726f6a6563742063726561746f722063616e2077697460008201527f68647261772066756e6473000000000000000000000000000000000000000000602082015250565b6000611233602b83610b96565b915061123e826111d7565b604082019050919050565b6000602082019050818103600083015261126281611226565b9050919050565b7f46756e64732063616e206f6e6c792062652077697468647261776e206166746560008201527f722074686520676f616c206973206d6574000000000000000000000000000000602082015250565b60006112c5603183610b96565b91506112d082611269565b604082019050919050565b600060208201905081810360008301526112f4816112b8565b9050919050565b6000819050919050565b600061132061131b61131684610c2a565b6112fb565b610c2a565b9050919050565b600061133282611305565b9050919050565b600061134482611327565b9050919050565b61135481611339565b82525050565b600060608201905061136f6000830186610c1b565b61137c602083018561134b565b6113896040830184610c1b565b949350505050565b7f476f616c206d7573742062652067726561746572207468616e207a65726f0000600082015250565b60006113c7601e83610b96565b91506113d282611391565b602082019050919050565b600060208201905081810360008301526113f6816113ba565b9050919050565b60008190508160005260206000209050919050565b60006020601f8301049050919050565b600082821b905092915050565b60006008830261145f7fffffffffffffffffffffffffffffffffffffffffffffffffffffffffffffffff82611422565b6114698683611422565b95508019841693508086168417925050509392505050565b600061149c61149761149284610b28565b6112fb565b610b28565b9050919050565b6000819050919050565b6114b683611481565b6114ca6114c2826114a3565b84845461142f565b825550505050565b600090565b6114df6114d2565b6114ea8184846114ad565b505050565b5b8181101561150e576115036000826114d7565b6001810190506114f0565b5050565b601f82111561155357611524816113fd565b61152d84611412565b8101602085101561153c578190505b61155061154885611412565b8301826114ef565b50505b505050565b600082821c905092915050565b600061157660001984600802611558565b1980831691505092915050565b600061158f8383611565565b9150826002028217905092915050565b6115a882610b8b565b67ffffffffffffffff8111156115c1576115c0610cff565b5b6115cb825461110b565b6115d6828285611512565b600060209050601f83116001811461160957600084156115f7578287015190505b6116018582611583565b865550611669565b601f198416611617866113fd565b60005b8281101561163f5784890151825560018201915060208501945060208101905061161a565b8683101561165c5784890151611658601f891682611565565b8355505b6001600288020188555050505b505050505050565b7f4e487b7100000000000000000000000000000000000000000000000000000000600052601160045260246000fd5b60006116ab82610b28565b91506116b683610b28565b92508282039050818111156116ce576116cd611671565b5b92915050565b600060a0820190506116e96000830188610c1b565b81810360208301526116fb8187610be2565b9050818103604083015261170f8186610be2565b905061171e6060830185610c1b565b61172b60808301846110b2565b9695505050505050565b7f446f6e6174696f6e206d7573742062652067726561746572207468616e207a6560008201527f726f000000000000000000000000000000000000000000000000000000000000602082015250565b6000611791602283610b96565b915061179c82611735565b604082019050919050565b600060208201905081810360008301526117c081611784565b9050919050565b7f50726f6a6563742063726561746f722063616e6e6f7420646f6e61746520746f60008201527f207468656972206f776e2070726f6a6563740000000000000000000000000000602082015250565b6000611823603283610b96565b915061182e826117c7565b604082019050919050565b6000602082019050818103600083015261185281611816565b9050919050565b7f50726f6a6563742068617320616c72656164792072656163686564206974732060008201527f676f616c00000000000000000000000000000000000000000000000000000000602082015250565b60006118b5602483610b96565b91506118c082611859565b604082019050919050565b600060208201905081810360008301526118e4816118a8565b9050919050565b60006118f682610b28565b915061190183610b28565b925082820190508082111561191957611918611671565b5b92915050565b60006060820190506119346000830186610c1b565b61194160208301856110b2565b61194e6040830184610c1b565b94935050505056fea26469706673582212206c6161faa25934a10913f9b15c4020a4f8ea011c128d361d16544da699e6008b64736f6c63430008140033",
  "linkReferences": {},
  "deployedLinkReferences": {}
}